:020000040800F2
:10000000F8790020A9010008E72B00086723000801
:10001000E52B0008A90D00087D2D00080000000058
:100020000000000000000000000000009F2C0008FD
:10003000D70D000800000000E92B0008A12C0008E3
:10004000C3010008C3010008C3010008C301000880
:10005000C3010008C3010008C3010008C301000870
:10006000C3010008C3010008C3010008C301000860
:10007000C3010008C3010008C3010008C301000850
:10008000C3010008C3010008C3010008000000000C
:10009000000000000000000000000000C301000894
:1000A000C3010008C3010008C3010008C301000820
:1000B000C3010008C3010008C3010008C301000810
:1000C000C3010008C3010008C3010008C301000800
:1000D000C3010008C3010008C301000800000000BC
:1000E000C3010008C3010008C301000800000000AC
:1000F000000000000000000000000000C301000834
:1001000000000000C3010008C3010008C30100088B
:1001100000000000000000000000000000000000DF
:10012000C3010008C3010008C3010008C30100089F
:10013000C3010008000000000000000000000000F3
:10014000000000000000000000000000C3010008E3
:10015000C3010008C3010008C3010008C30100086F
:10016000C3010008C30100080000000000000000F7
:10017000000000000000000000000000000000007F
:1001800000000000C30100080000000000000000A3
:10019000C3010008DFF80CD000F076FB00480047F0
:1001A0001D3F0008F87900200648804706480047B0
:1001B000FEE7FEE7FEE7FEE7FEE7FEE7FEE7FEE717
:1001C000FEE7FEE7292D0008950100082DE9F05F04
:1001D0000546002092469B468846064681464024B6
:1001E0001BE0284641464746224600F016FA534691
:1001F0005A46C01A914110D311461846224600F0C3
:10020000FDF92D1A67EB01084F4622460120002117
:1002100000F0F4F917EB00094E41201EA4F101048F
:10022000DFDC484631462A464346BDE8F09FD2B25D
:1002300001E000F8012B491EFBD270470022F6E7CF
:1002400010B513460A4604461946FFF7F0FF20464C
:1002500010BD2DE9FE4F804681EA0300C00F0C4619
:10026000009021F0004123F00045B8EB0200A941C5
:1002700005D24046214690461C460B46024623F0D6
:100280000040104347D0270DC7F30A00C3F30A51BB
:100290000290401A019040286BDAC3F3130040F437
:1002A000801B0098924620B10023D2EB030A63EB37
:1002B0000B0B01985946C0F14002504600F09EF9E0
:1002C00006460D4650465946019A00F0B6F910EB25
:1002D00008006141002487EA115284EAE7731A4357
:1002E00040D0009A62B3019A012A4FEA075215DC06
:1002F000001B61EB02014FF0004202EA0752CDE918
:100300000042001C41F5801132462B4600F0EDF909
:1003100003B0BDE8F08F40462146F9E7001B61EBD2
:100320000201001C41F5801300185B412018A2F562
:10033000001747EB030140EAD570B6196D4111E093
:100340006D084FEA360645EAC0754FEA0752001BB2
:1003500061EB0201001C41F5801149084FEA3000B1
:100360000019514132462B4603B0BDE8F04F00F072
:10037000ADB90098012240000023D0EB020263EBEC
:10038000E073009821464FEAE074B8EB000061EB9F
:100390000401E9E783F000435BE781F0004158E79F
:1003A0002DE9FE4F81EA030404F0004421F00041EE
:1003B00000944FF0000B23F0004350EA01045ED09C
:1003C00052EA03045BD0C3F30A54C1F30A552C4428
:1003D000A4F2F3340194A0FB0254C1F3130141F4DD
:1003E0008011C3F3130343F4801301FB024400FBA9
:1003F000034E840A970A44EA815447EA8357A4FBD0
:10040000076802958D0A05FB07854FEA932C04FBCC
:100410000C542705029D4FEA065847EA1637B5EBFC
:1004200008056EEB070C870E920E47EA811742EA29
:100430008312A7FB0201B6EB0B0164EB00042B0D4A
:1004400043EA0C335E1844EB1C50DA465146E7FB96
:100450000201C5F313044FEA0B3343EA14534FEA86
:100460000432019C43EA0603A4F10C040294009CAC
:10047000CDE900B400F039F903B0BDE8F08F0020F9
:100480000146F9E72DE9F04D81EA030404F0004B41
:1004900021F0004514464FF0000A23F0004150EAD5
:1004A000050220D054EA01021DD0C5F30A570246C6
:1004B000C5F31303C1F31300C1F30A5640F48015CA
:1004C00043F48013A7EB0608101BD64608F2FD384C
:1004D00073EB050002D308F1010801E092185B41BB
:1004E000B8F1000F03DA00200146BDE8F08D0020CE
:1004F0004FF48011064684460EE0171B73EB050788
:1005000005D3121B63EB050306434CEA010C4908B3
:100510004FEA300092185B4150EA0107EDD152EAF0
:10052000030012D082EA040083EA0501084305D0E3
:10053000101BAB4106D20122002306E000224FF03F
:10054000004302E06FF0010253101AEB06004CEB7F
:10055000085110EB0A0041EB0B01BDE8F04D00F033
:10056000B5B80EB5C10F80EAE0700844CA07002193
:1005700040F233438DE80E000A460B4600F0B5F812
:1005800003B000BD0EB540F2334102910021CDE928
:1005900000110A460B4600F0A8F803B000BD00F0B9
:1005A000004230F000400AD0C10D01F56071C0F387
:1005B000160042EA0151C20840071143704700206B
:1005C0000146704701F0004330B421F0004150EA89
:1005D000010206D00A0DA2F56072C1F31301002AD0
:1005E00002DC30BC00207047440F44EAC104C10063
:1005F000E01830BC00EBC25000F031B8202A04DB18
:10060000203A00FA02F1002070479140C2F1200325
:1006100020FA03F3194390407047202A04DB203A64
:1006200021FA02F00021704721FA02F3D040C2F112
:1006300020029140084319467047202A06DBCB1759
:10064000203A41FA02F043EAE07306E041FA02F38D
:10065000D040C2F12002914008431946704700295A
:10066000A8BF7047401C490008BF20F00100704738
:1006700010B4B0FA80FC00FA0CF050EA010404BF98
:1006800010BC704749B1CCF1200421FA04F411FAEE
:100690000CF118BF012121430843A3EB0C01CB1D32
:1006A0004FEA00614FEA102042BF002010BC7047A3
:1006B00000EBC35010440029A4BF10BC7047401C7D
:1006C000490008BF20F0010010BC704710B5141E8F
:1006D00073F1000408DA401C41F1000192185B41FB
:1006E0001A4301D120F0010010BD2DE9F04D9246D2
:1006F0009B4611B1B1FA81F202E0B0FA80F22032E9
:100700009046FFF77BFF04460F4640EA0A0041EAA5
:100710000B0153465A46084313D0114653EA0100D1
:1007200019D0C8F140025046FFF777FF05460E4644
:10073000504659464246FFF761FF084305D0012065
:1007400004E020463946BDE8F08D0020054346EA26
:10075000E0762C4337430A986305E40AA0EB0800CF
:100760000022FD0A44EA47540A3002D5002001461F
:10077000E9E7010510196941DDE9084500196941FA
:10078000BDE8F04DA2E770B521F0004303430CD063
:10079000C1F30A550024D5EB040564EB0403D61716
:1007A000AD1AB34102DB0020014670BD201841EBB9
:1007B000025170BD2DE9F04D00231A461B1A8A41E3
:1007C00003DB00200146BDE8F08DC1F30A52C1F3FE
:1007D000130141F480154FF0000BD10702D100182E
:1007E0006D41521E0027044640F2FF11384601EBCE
:1007F000620A3E468046024600204FF48011FFF711
:100800000CFFC2197141BB1846EB0100B4EB030C9D
:1008100075EB000C04D3E41A65EB000517460E4691
:10082000241908F101006D4180463428E3DDF919EF
:1008300046EB0600091BA84103D24FF0FF321346D6
:1008400001E0002213461BEB070046EB0A51BDE80E
:10085000F04DFFF73BBF000030B5041E71F10004FE
:1008600004DB4FF00044404264EB0101141E73F1BD
:10087000000405DB1C464FF00043524263EB0403C7
:10088000994208BF904230BD064C074D06E0E06833
:1008900040F0010394E8070098471034AC42F6D3C7
:1008A000FFF77CFC90460008B04600082DE9F74FA2
:1008B00006462DED020B0D462DED0E8B88B0B0EEE9
:1008C000609AF0EE40AAB0F882060090304601F03F
:1008D000BDFFF0EE408A2946304601F04BFFB0EEF6
:1008E00040BADFEDFD9A3BEE290A10EE100AFFF741
:1008F00056FE41EC100B9FEDF9CBB0EE4C1AF0EE2A
:100900006C1A02F039FB51EC100BFFF75BFE39EE6D
:10091000290A08EE100A10EE100AFFF740FE41EC1B
:10092000100BB0EE4C1AF0EE6C1A02F025FB51ECF5
:10093000100BFFF747FE00EE100A30EE481AC1EE2A
:100940002A0A30EE609AD5ED0B0A9FEDE61AB7EE53
:10095000008AE54BB0EE480A00EE810AC8EE000AB4
:10096000CDED030A8DED048AB5F94000D5ED0D0AF1
:1009700000EE100AB8EEC01AB0EE480A00EE810A86
:100980008DED050AB5F94210D5ED0E1A081A00EEE4
:10099000900AB8EEE01AF0EE480A41EE810A20EE25
:1009A000800A8DED060AB6F8140600EE100AB8EEBD
:1009B000400A10EE100A9FEDCDAA984201DD30EEFC
:1009C0004A0AB5F91400802100EE900AB6F88006B4
:1009D00001AAF8EEE00A01EA5017B6F81006002165
:1009E00080EE80CA00EE100AB8EE400A8DED010AD2
:1009F000B6F8500600EE100AB8EE400A8DED020A75
:100A000002EB8100994690ED000A10EE104A9C42DC
:100A100003DD30EE4A0A80ED000A20EE0C0A491C84
:100A2000022980ED000AEBDBB3EE090AD5ED080AD6
:100A30007BEE40CA05F50050B0EE480AB0F94C1AFA
:100A400000EEAC0A00EE901A95ED071AF8EEE00AF7
:100A500060EE201ADFEDA60A05F5205B38EEE0DA3D
:100A6000F0EE480A41EE0D0A9DED011A01EEE01A82
:100A70008DED011AB0F94E0A95F8252001EE100A05
:100A8000BA42B8EEC11A02D120EE011A05E0DBED40
:100A9000941A31EE211A21EE001A9DED020A00246B
:100AA00001EE600A8DED020AE31704EB936104EB9B
:100AB000D36089114011494200EB410042B204EB7E
:100AC000D4704010404204EB400004F1020C50404E
:100AD0004FEAEC784FFA80FA0CEB987CE01C4FEA76
:100AE000E0784FEAAC0C00EB9870611CACEBA00016
:100AF0004FEAE17C01EB9C7100EBA10004EB9371E8
:100B0000A0EBA1005342012101EB4301484341B254
:100B1000002F7BD04FEA0A00B6F88236834276D1A6
:100B200036F8140000EE100AB8EE400A10EE100A73
:100B3000484501DD30EE4A0A05EB840000F580539C
:100B400093ED911A60EE0C0A05EB4403B0EE480AEF
:100B5000B3F9443C01EE2C0A01EE103A00F5E053E3
:100B6000B8EEC11AD3ED911A95F8253020EE011A8E
:100B7000B0EE480ABB4201EE8D0A41EE400A13D0A6
:100B80004FF0FF3303EB420200EE102A9BED961A62
:100B9000B8EEC00A41EE000A00EE101A9BED951A5D
:100BA000B8EEC00A41EE400A009901AA02EB8101A9
:100BB00095ED060AF0EE48DAC0EEAA8AD1ED000AF9
:100BC00040EE608AD0ED110A009805EB800000F538
:100BD000205090ED911A40EE410A95ED0A1AB0EEC0
:100BE0006D0A01EE2C0A20EE80EAB0EE680A0EEEE5
:100BF000090A10EE100AFFF7D2FC41EC1B0B1EEEA7
:100C0000100AFFF7CCFC41EC100B01E054E0BBE014
:100C10009FED381B02F0B0F953EC1B2B51EC100B7D
:100C2000FFF7BEFBFFF7CEFC8046286BFFF7B7FC53
:100C300041EC1B0B4046FFF7B2FC41EC100B02F0FD
:100C4000C3FF02F0C1FF53EC1B2B51EC100BFFF75D
:100C5000A7FBFFF7B7FC95ED0C1AF0EE6D0A00EE5E
:100C6000100A41EE690A0EEE200AC8EE800A30EE44
:100C7000890A10EE100AFFF792FC41EC100B02F00B
:100C8000A3FF02F0A1FF9FED1D1B51EC100B53ECD5
:100C9000112BFFF77FFBFFF795FC00EE100AB5F96B
:100CA0003E0000EE900AF8EEE00AF4EEC00AF1EE23
:100CB00010FA03DD002033E010462DE7B5F94000BF
:100CC00000EE900AF8EEE00AF4EEC00AF1EE10FA37
:100CD00018DD012024E00000339388430000000069
:100CE000000010400000204200FEFF460000804748
:100CF0003333534000000000000008400000006053
:100D000066127140B5F9420000EE900AF8EEE00A72
:100D1000F4EEC00AF1EE10FA01DD022000E003203B
:100D200005EB800191ED0B1A05EB4001B1F93C1088
:100D300000EE901A03A901EB8000F8EEE00A30EE15
:100D4000600A41EE00DA90ED000A20EE0E0A2DEE68
:100D5000800AC8EE800A30EE890A10EE100AFFF70A
:100D60001EFC41EC100B02F02FFF02F02DFF9FED57
:100D70000C1B51EC100B53EC112BFFF70BFBFFF787
:100D800021FC1A9941F82400641CB4F5407FFFF659
:100D90008BAE08B0BDEC0E8B05B0BDE8F08F000047
:100DA0006666666666127140FEE7411A01F121022D
:100DB0006FF00500032A06D34A1C032A03D31F3908
:100DC000032900D300207047007D10F0400001D0BF
:100DD0006FF00600704770474FF0E0210A6922F07B
:100DE00004020A610A6922F002020A610649C00887
:100DF00000EB40020870C2EBC0104FF6FF7202EA2F
:100E0000C0004880704700001000002070470000BC
:100E10002DE9F34F04462DED048B1E21BBB0B0F835
:100E20004000B4F8429001EB103600F00F07C0F319
:100E3000031BC0F3032A002220A904EB4200930005
:100E4000B0F84400521C00F00F0541F8235001EBAC
:100E50008303C0F303155D60C0F30325000BC3E9F2
:100E60000250062AE9DB002051F82020072A02DD83
:100E7000103A41F82020401C1828F5DB00206A4673
:100E800004EB40038500B3F85030401C03F00F0C16
:100E900042F825C002EB8505C3F3031CC5F804C066
:100EA000C3F3032C1B0BC5E902C30828E8DB0020B1
:100EB00052F82030072B02DD103B42F82030401C56
:100EC0002028F5DB012000FA07F800253046FFF75F
:100ED00059FB9FED308BCDE93801002606EB45101C
:100EE00004EB4001B1F88010C1F3051100EE101AB7
:100EF0004099B8EE401A01EB8007284911EE100A1C
:100F000087ED111A884205DD9FED250A31EE400A72
:100F100087ED110A00EE108A20A8D7ED110AB8EE6D
:100F2000C00A50F825005DF8261000FA0AF000EB20
:100F3000090201FA0BF120EE800A501800EE900A27
:100F4000F8EEE00A30EE800AF0EE680A87ED110A4A
:100F5000DDE9380141EC110BB0EE480A02F00CF863
:100F6000B0EE409AF0EE609A786CFFF718FB53EC05
:100F7000192BFFF787FAFFF725FB761C7864202EE4
:100F8000ACDB6D1C182DA8DB3BB0BDEC048BBDE8C1
:100F9000FC8F000000000000000000400000F8414D
:100FA0000000804210B5828A802303EA121282F088
:100FB0008003B0F86A20204C02F03F0000EE100AD7
:100FC000B8EE400A10EE100AA04203DDDFED1B0A66
:100FD00030EE600ADFED1A0AC2F38410194C60EE9D
:100FE000200A00EE100A9FED181AB8EE400A10EE23
:100FF000100AA04201DD30EE410AF6EE001AD00AD6
:1010000060EE211A00EE100AB8EE400A10EE100A47
:10101000A04201DD30EE410AB4EE001A81F825301D
:1010200001F5205120EE010AC1ED940AC1ED951A97
:1010300081ED960A10BD00000000F84100008042DA
:101040000000803D00007041000000422DE9F041A9
:1010500006462DED088B0D461B21B0F84000B6F872
:10106000742001EB1031C2F3090060F30F04B0F5F6
:10107000007F03DBA0F5806060F30F04900A60F34B
:101080001F441F2802DD403860F31F4404EB244056
:1010900060F31F44B6F87200594AC0F3090000EE2D
:1010A000100AB8EE408A18EE100A904203DD9FED58
:1010B000550A38EE408A0846FFF764FA41EC110BF6
:1010C0009FED519BB0EE490AF0EE690A01F054FF22
:1010D000B0EE401AF0EE601AB0EE41AAF0EE61AA4E
:1010E00018EE100AFFF75BFA53EC1A2BFFF7CAF958
:1010F000FFF768FA01EE900AB6F8720011EE907AE6
:10110000800A00EE100A4249B8EE401A11EE100AA9
:10111000884203DD9FED3F0A31EE401ADFED3E0AC3
:10112000B7EE000A96F8760001EE200ADFF8EC80B0
:101130009FED3BAA60EE218A00EE100AB8EE408ACD
:1011400018EE100A404501DD38EE4A8A96F8700024
:10115000C0F303100830FFF715FA41EC110BB0EEA5
:10116000490AF0EE690A01F007FFB0EE40BAF0EE6E
:1011700060BA18EE100AFFF712FA53EC1B2BFFF7B8
:1011800081F9FFF71FFA2862B6F87600000A00EE30
:10119000100AB8EE408A18EE100A404501DD38EE1C
:1011A0004A8AB6F87000C0F30320FFF7EBF941EC70
:1011B000110BB0EE490AF0EE690A01F0DDFEB0EE67
:1011C000409AF0EE609A18EE100AFFF7E8F953EC37
:1011D000192BFFF757F9FFF7F5F9E86105F52050EE
:1011E00005F50055C0F84472C0ED928AA5F84C4A46
:1011F0002014A5F84E0ABDEC088BBDE8F081000074
:101200000080FF4300008044000000000000004018
:101210000000F841000080420000003C0000FE4257
:10122000000080432DE9F0410E46002107460C46A0
:101230000D4608464FF6FF7306EB410202F50052D9
:10124000491CA2F85C3A89B2A2F8663A0529F3D3A0
:1012500000214FF4407300BF07EB4102B2F8802039
:10126000BAB1D20707D006EB450202F500526D1C59
:10127000A2F8661AADB2491C89B2994203D2052C74
:1012800001D2052DE8D3042C0CD96FF00200BDE883
:10129000F08106EB440202F50052641CA2F85C1ACD
:1012A000A4B2E8E7042D02D96FF00300EFE761195B
:1012B000042902D96FF00400E9E7002317E006EBE8
:1012C00043015F1C01F500580DE000BF06EB47002D
:1012D00000F50050B0F85C1AB8F85C0AFFF765FD3D
:1012E0000028D4D17F1CA742F0DB5B1C9BB2A34239
:1012F000E5D3002317E006EB43015F1C01F500581E
:101300000DE000BF06EB470000F50050B0F8661A8C
:10131000B8F8660AFFF749FD0028B8D17F1CAF4234
:10132000F0DB5B1C9BB2AB42E5D3002317E006EB7E
:101330004301002701F500580DE000BF06EB470010
:1013400000F50050B0F8661AB8F85C0AFFF72DFDFA
:1013500000289CD17F1CAF42F0DB5B1C9BB2A342F8
:10136000E5D394E7B0F96000B0F5004F00DB00B2C0
:1013700088827047B0F878000A4A000A00EE100A26
:10138000B8EE400A10EE100A904203DDDFED060AC7
:1013900030EE600ADFED050A20EE200A81ED0A0A30
:1013A000704700000000FE4200008043000000394A
:1013B00030B530F87E2F6FF02703C2F3013202EB15
:1013C000820252008B870023CB8710F80439C3F3C5
:1013D0000313A1F840308488C4F3032413FB02F301
:1013E000A1F8403014FB0232A1F842200279204DCE
:1013F00002F00F03012208339A400378DFED1D0A43
:1014000000EE103AB8EE400A81ED0B0A03881B0A81
:1014100000EE103AB8EE400A81ED0C0A837800EE37
:10142000103AB8EE400A81ED0D0A4088000A00EE3D
:10143000100A0020B8EE400A81ED0E0A01EB80038D
:1014400093ED0B0A10EE104AAC4203DD30EE600A59
:1014500083ED0B0AB0EE401A00EE102A401C04285F
:10146000B8EEC00AC1EE001AC3ED0B1AE6DB30BDC0
:101470000000FE42000080432DE9F04F8B462DED29
:10148000048B064683B0B0F86C1041F307207F2828
:1014900000DD40B28DF8080048B27F2800DD40B280
:1014A0008DF80A00B6F86E1041F307207F2800DDA2
:1014B00040B28DF8090048B27F2800DD40B28DF8B7
:1014C0000B0096F870000025C0F3031100F00F0226
:1014D000012000FA02F8DFF8E4900DF1080A01F1AA
:1014E0000800FFF74FF89FED368BCDE9000100248F
:1014F00004EB4511C81701EBD06201EB906080113D
:101500005211404202EB400001EBD17222F0010285
:101510008A1A02EB4000C2B206EB41000BEB8107D6
:1015200090F8800007F58057C0F3420000EE100AE3
:10153000B8EE400A10EE100A87ED910A484505DD25
:10154000F2EE000A30EE600A87ED910AF0EE400AF2
:1015500000EE108A1AF90200B8EEC00A20EE800AE6
:1015600000EE900AF8EEE00A30EE800AF0EE680A2B
:1015700087ED910ADDE9000141EC110BB0EE480A5C
:1015800001F0FAFCB0EE409AF0EE609AD7F844020F
:10159000FFF705F853EC192BFEF774FFFFF712F86D
:1015A000641CC7F84402202CA2DB6D1C182D9EDBA6
:1015B00003B0BDEC048BBDE8F08F0000000040409C
:1015C00000000000000000402DE9F04788462DEDA6
:1015D000048B82B0B0F86820110B072900DD1039A8
:1015E0008DF80010C2F30321072900DD10398DF8B2
:1015F0000210C2F30311072900DD10398DF8011024
:1016000002F00F01072900DD10398DF80310B0F842
:1016100070000025C0F303206F46FEF7B3FF9FED77
:10162000238B8A468146002404EB4510C11700EB4A
:10163000D16200EB916189115211494202EB4101E3
:1016400000EBD07222F00102821A02EB4101C9B212
:10165000795608EB800600EE101A06F5E0564AECC3
:10166000119BB8EEC00AF0EE680A86ED910AB0EE62
:10167000480A01F081FCB0EE409AF0EE609AD6F88C
:101680004402FEF78CFF53EC192BFEF7FBFEFEF72E
:1016900099FF641CC6F84402202CC5DB6D1C182D74
:1016A000C1DB02B0BDEC048BBDE8F0870000000098
:1016B000000000402DE9F04F8B46018CB0F922402C
:1016C000B8B001F00F09C1F3031CC1F3032AB4F54C
:1016D000004F00DB24B2002120AA00EB41038D0063
:1016E0009B8C491C03F00F0642F8256002EB850530
:1016F000C3F303166E60C3F303261B0BC5E9026335
:101700000629EADB5FF0000152F82130072B02DDE9
:10171000103B42F82130491C1829F5DB00236946AB
:1017200000EB43059E002D8E5B1C05F00F0741F872
:10173000267001EB8606C5F303177760C5F3032710
:101740002D0BC6E90275082BEADB002351F8235064
:10175000072D02DD103D41F823505B1C202BF5DBEB
:101760000023964600225EF8235005FA0AF500BFD2
:1017700002EB431600EB46070BEB4606B7F880700A
:10178000BF0AA6F8447C1F2F02DD403FA6F8447C28
:1017900031F82280BFB207FA09F708FA0CF8A8441A
:1017A00027444744521CA6F8447C202AE0DB5B1CFB
:1017B000182BD7DB38B0BDE8F08F000070B50C46B1
:1017C0002DED048B0546B0F86410254A880A00EE1A
:1017D000100AB8EE400A10EE100A904203DDDFED69
:1017E000210A30EE600ADFED200AC1F309001F492B
:1017F00020EE208A00EE100AB8EE400A10EE100A21
:10180000884203DDDFED1A0A30EE600AF4EE000ACA
:10181000B5F862609FED171B60EE208A9FED170BF5
:1018200001F0AAFB288CB0EE409AF0EE609A00F42A
:101830007040FEF7A7FE53EC192BFEF723FE9FED39
:10184000111B53EC112BFEF704FDFEF7BBFE84EDDC
:10185000018AC4ED028AA6812061BDEC048B70BDB3
:101860000000F84100008042000080390080FF4302
:10187000000080440000000000002C400000000038
:1018800000000040000000000000204090F87800B8
:10189000094A00EE100AB8EE400A10EE100A904213
:1018A00003DDDFED060A30EE600ADFED050A20EE0B
:1018B000200A81ED060A70470000FE4200008043C6
:1018C0000000003DB0F86620100A7F2801DDA0F579
:1018D00080704001D2B24FF4404303EB42120880C3
:1018E0004A8070472DE9F84FDFF860B100224FF0D1
:1018F00001084FF0030A4FF00F090BF1040E00BF6F
:101900000B6808FA02F42340A3426ED14D68022D01
:1019100001D0122D0ED1D50800EB850CDCF820503B
:101920005607F70E09FA07F6B5430E69BE402E4377
:10193000CCF82060066855000F790AFA05FC07F01C
:10194000030726EA0C06AF40374307604E68012EB6
:1019500005D0022E03D0112E01D0122E0ED1866892
:10196000CF6826EA0C06AF40374387604668A64337
:101970000C79C4F30014944034434460C6688C6806
:1019800026EA0C06AC403443C4604C68E40056D5EB
:101990002F4C256845F480452560246822F0030516
:1019A00004F4804400942B4C2E19D6F8084895076F
:1019B0002F0F09FA07F5AC43274DA84201D10025A6
:1019C00015E0264DA84201D1012510E0244DA84282
:1019D00001D102250BE0234DA84201D1032506E0E9
:1019E000214DA84202D1042501E028E00725BD4091
:1019F0002543C6F80858DBF800405D464E689C4316
:101A0000F60300D51C432C60DEF8004075464E6896
:101A10009C43B60300D51C432C600C4D08352C6844
:101A20004E689C43F60200D51C432C60074D0C35D4
:101A30002C684E689C43B60200D51C432C60521C97
:101A4000102AFFF45DAFBDE8F88F0000003C0140B4
:101A500044380240003001400000024000040240CF
:101A600000080240000C0240001002400AB18161EF
:101A700070470904FBE700000148806870470000D8
:101A8000000000200248816802781144816070479C
:101A9000000000200B4810B5016841F4007101609E
:101AA000016841F480610160016841F48071016066
:101AB000032000F061F8002000F006F800F024F8A0
:101AC000002010BD003C024070B50D4D04464FF49F
:101AD0007A712878B1FBF0F00A490968B1FBF0F09F
:101AE00000F02DFC48B9102C07D200222146501ED0
:101AF00000F022F800206C6070BD012070BD000075
:101B0000000000200C0000200A4808B5016841F4DC
:101B100080410160006800F4804000900548001F8B
:101B2000016841F080510160006800F08050009031
:101B300008BD000044380240F0B40E4B1B680C4650
:101B4000C3F30223C3F10705042D00D90425191D91
:101B5000072901D2002300E0DB1E012606FA05F169
:101B6000491E214099409E40761E16403143F0BCEC
:101B700001F0F2B90CED00E0064900F00702086838
:101B80004FF6FF03184040EA0220034A1043086062
:101B9000704700000CED00E00000FA052DE9F04769
:101BA0000E46050065D0DFF81481D8F80000F7B2C2
:101BB00000F00F00B04207D288F80070D8F800009B
:101BC00000F00F00B04254D128683D4C810712D577
:101BD000400703D5206840F4E050206028780007D3
:101BE00003D5206840F4604020602068A96820F098
:101BF000F000084320602878C0072DD0304968687D
:101C00000839012812D0022813D0032811D00968FE
:101C1000890700292DDA216821F0030101432160A1
:101C2000FFF72AFF814641F2883A0EE009688903EE
:101C3000EFE709688901ECE7FFF71EFFA0EB090158
:101C4000514502D90320BDE8F0872068696800F09B
:101C50000C00B0EB810FEFD1D8F80010404601F036
:101C60000F01B14207D90770006800F00F00B042C1
:101C700001D00120E7E72878400705D52068E9680A
:101C800020F4E050084320602878000706D520683B
:101C9000296920F4604040EAC100206000F016F895
:101CA0002168084AC1F30311515CC8400649086025
:101CB0000020FFF709FF0020C5E70000003C0240BC
:101CC00008380240F04500080C000020154810B507
:101CD000006810F00C02144813D01449042A0FD0E5
:101CE000082A0ED10F4C241F2268236802F03F02FD
:101CF0005B0207D52068C0F38810A0FB010106E055
:101D0000084610BD2168C1F38811A1FB0001002322
:101D1000FEF75CFA2168C1F30141491C4900B0FBA0
:101D2000F1F010BD083802400024F40040787D0135
:101D30002DE9F84F050076D02878DFF8F8B2BE4CD0
:101D4000C00749D0DBF800105846C1F381010129D2
:101D500008D00068C0F3810002280AD1201D006865
:101D6000400206D52068800336D568680028E2D096
:101D700032E06868B0F5803F10D0B0F5A02F206841
:101D800010D020F480302060206820F48020206073
:101D90006868A0B1FFF770FE06460CE0206840F4CA
:101DA0008030F4E740F480202060F7E7FFF764FE1E
:101DB000801B642873D820688003F7D50CE0FFF7F8
:101DC0005BFE064605E000BFFFF756FE801B642859
:101DD000F0D820688003F7D42878DFF86082800785
:101DE0004FF000093ED5DBF80010584611F00C0FFB
:101DF00009D00068C0F3810002280BD18D48001F74
:101E00000068400206D42068800715D5E8680128DC
:101E100009D111E0E868B8B10120C8F80000FFF767
:101E20002BFE064605E002E1FFF726FE801B022896
:101E3000C0D820688007F7D52068296920F0F8000D
:101E400040EAC10020600DE0C8F80090FFF714FEE2
:101E5000064604E0FFF710FE801B02281FD820680A
:101E60008007F7D42878000722D5724E7448696934
:101E70006C3671B101210160FFF7FEFD074604E0F9
:101E8000FFF7FAFDC01B022809D830688007F7D594
:101E90000EE0C0F80090FFF7EFFD074605E083E095
:101EA000FFF7EAFDC01B02287ED830688007F7D410
:101EB0002878400768D5DFF87CA100270AF1380AA6
:101EC000DAF80000C0000BD4DAF8001041F08051BD
:101ED000CAF80010DAF80000012700F080500090E6
:101EE000584E3068C00510D4306840F480703060BF
:101EF000FFF7C2FD009005E0FFF7BEFD0099401A14
:101F0000022851D83068C005F6D54A4EA868683610
:101F100001280FD00528306810D020F00100306073
:101F2000306820F004003060A868B8B1FFF7A4FD65
:101F300000900FE0306840F00100F4E740F004004A
:101F40003060F7E7FFF798FD0099411A41F28830B9
:101F5000814264D830688007F4D50EE0FFF78CFD2D
:101F6000009007E0FFF788FD0099411A41F28830A0
:101F7000814254D830688007F4D42FB1DAF80010C9
:101F800021F08051CAF80010A869C0B3DBF8001036
:101F9000C1F3810102294AD00228484607D0C8F877
:101FA0006000FFF769FD00E039E005463AE047468A
:101FB000C8F86000FFF760FD064604E0FFF75CFD2F
:101FC000801B02282BD820688001F7D4D5E90701AF
:101FD0000843A96A1C4A490802EB01416A6A41EABE
:101FE0008211084395F82C1040EA01611148001F46
:101FF000016001203866FFF73FFD054605E014E06B
:10200000FFF73AFD401B022809D820688001F7D568
:102010000BE000BFFFF730FD401B022802D9032070
:10202000BDE8F88F20688001F4D40020F8E7012093
:10203000F6E700000838024000380240000047423E
:10204000800E4742007000400000FFFF70B50400A2
:1020500005D00025A56294F8510010B106E00120DA
:1020600070BD84F85050204600F030F8022084F80B
:1020700051002068016821F040010160D4E90101AC
:102080000843D4E903121143084361690843218BD3
:1020900001F400710843E1690843216A0843A16A19
:1020A000084321680860A069042101EA1040616AC0
:1020B0000843216848602068C16921F40061C1615A
:1020C0006565012084F85100002070BDF0B587B02F
:1020D000044614216846FEF7B1F81C49206888427E
:1020E00032D11B480024016841F48041016000683E
:1020F00000F48040059016481038016841F0040152
:102100000160016801F004010591016841F00201DC
:1021100001600068022500F0020005900C20CDE966
:10212000000502AA0326052782E8D000694609486F
:10213000FFF7D8FB6802CDE9000502AA694682E8EC
:10214000D0000548FFF7CEFB07B0F0BD00380040D7
:102150004038024000080240000402402DE9F84FD8
:10216000044690F8500000270A9E1D4692468B4672
:102170004FF0010901280ED0012084F85000FFF72C
:102180007BFC804694F85100616801280CD0B1F5C1
:10219000827F07D102E00220BDE8F88FA16809B96B
:1021A000042801D00227C2E0BBF1000F27D0BAF10A
:1021B000000F24D01DB394F85100042802D005204C
:1021C00084F8510000206065C4F838A0E587A58731
:1021D000C4F830B0E586A586206460642068016894
:1021E000490603D4016841F040010160E068B0F5A0
:1021F000006F606805D0E8B3012D46D07FE001276D
:1022000095E008B1012D39D1206B21680088C860A4
:10221000206B801C2063E08E401EE0862EE020684C
:10222000816889070FD5E18E69B1B9F1010F0AD133
:10223000216B0988C160206B801C2063E08E401EEA
:10224000E0864FF0000920688168C9070CD0E18F53
:1022500051B1C068A16B0880A06B801CA063E08FA7
:10226000401EE0874FF00109FFF706FCA0EB0800D5
:10227000B04200E009E001D3701C50D1E08E00288C
:10228000CDD1E08F0028CAD13FE0206B21680078D3
:102290000873206B401C2063E08E401EE0862EE019
:1022A0002068816889070FD5E18E69B1B9F1010F06
:1022B0000AD1216B09780173206B401C2063E08EEA
:1022C000401EE0864FF0000920688168C9070CD0E5
:1022D000E18F51B1C068A16B0870A06B401CA06376
:1022E000E08F401EE0874FF00109FFF7C5FBA0EB30
:1022F0000800B04202D3701C01D010E07EB1E08E25
:102300000028CDD1E08F0028CAD142463146204670
:1023100000F06BFC28B101272020606507E003274F
:1023200005E0A06818B92068C168806800900120A5
:1023300084F85100002084F8500038462CE710B58E
:10234000401EB0F1807F01D3012010BD4FF0E0248A
:1023500060610F21601700F0FFFD0020A0610720E1
:102360002061002010BDFEE72DE9F34FDFF894B0A7
:102370000746DBF8001021F44041CBF8001000269E
:10238000214D34E0686800F0C9FD0024DFF874A036
:102390001C4B22464FF040090AF1100A18334FF443
:1023A0008008686800F0BAFDC3F80090686800F023
:1023B000B5FD6006040EDAF80000000601D5641CC5
:1023C000E4B2686800F0AAFDC3F80080686800F015
:1023D000A5FD521C082AE4DB781E864202D100F0DB
:1023E000BFF801E000F062F801988455761CBE4207
:1023F000C8DBDBF8001041F48041CBF80010BDE8E9
:10240000FC8F0000000402401400002030B5134A85
:10241000106820F440401060114B586800F07EFDB9
:102420000E4C402018342060586800F077FD0B48AF
:1024300010300068000601D4002500E0012558682E
:1024400000F06CFD106840F4804010604FF4800094
:10245000206040002060284630BD0000000402409B
:10246000140000200F4810B5016841F4804101605C
:102470000C4A4FF48004183214600B4B586800F07B
:102480004DFD80201060586800F048FD402010602D
:10249000586800F043FD60001060586800F03EFD91
:1024A000146010BD00040240140000200F4800B565
:1024B000016841F4804101600C4A4FF40000183279
:1024C00010600B4B586800F029FD402010605868E0
:1024D00000F024FD586800F021FD4FF480001060EA
:1024E000586800F01BFD8020106000BD0004024011
:1024F000140000202DE9F04303461748016841F419
:1025000080410160144C0025144A183440264FF0D5
:1025100080084FF400093704506800F0FFFC1806EB
:1025200001D5404600E048462060506800F0F6FCC7
:102530002660506800F0F2FC506800F0EFFC276065
:1025400058006D1C43B2082DE6DB506800F0E6FC35
:10255000BDE8F043FFF75ABF00040240140000201A
:102560000E4810B5016841F4804101600B4A802497
:10257000183214600A4B586800F0D0FC40201060FC
:10258000586800F0CBFC586800F0C8FCE00310600D
:10259000586800F0C3FC146010BD00000004024045
:1025A00014000020104800B5016841F4804101602A
:1025B0000D4A802018321060402010600B4B586884
:1025C00000F0ACFC586800F0A9FC4FF4000010606B
:1025D000586800F0A3FC4FF48000106058685DF864
:1025E00004EB00F09BBC000000040240140000203B
:1025F0000E4800B5016841F4804101600B4A4FF478
:1026000080001832106040001060094B586800F0DC
:1026100085FC40201060586800F080FC802010602D
:1026200058685DF804EB00F079BC0000000402403B
:10263000140000200B464FF450724FF4105100F07C
:1026400067B970B50C460546FEF7BEFB00283BD1C6
:1026500021462846FFF736F921462846FFF7AEF80F
:1026600021462846FEF77EFE21462846FFF70EF952
:10267000B5F870002146C0F3013084F824002846E4
:10268000FEF778FE21462846FEF792FE21462846B0
:10269000FEF7BEFB21462846FFF70CF821462846E8
:1026A000FEF7EAFE21462846FEF78EFF2146284621
:1026B000FEF7CCFC21462846FEF774FC214628464E
:1026C000BDE87040FEF7AEBD70BD2DE9FC470D467C
:1026D000814600244FF400466B46012231464846AD
:1026E00000F016F900282DD1BDF8000010F0080FF9
:1026F000F2D04FF450774FF48068052C1ED2302270
:102700003146484600F060F9411C1BD02B463A4642
:102710004146484600F0FCF8002813D16B460122E0
:102720003146484600F0F4F800280BD1BDF800000F
:1027300004F1010410F0080FE4B2DED1042C03D937
:102740006FF00700BDE8FC8701AB012248F20D01E4
:10275000484600F0DDF80100BDF80400A5F8800649
:10276000BDF8000000F00100A5F88206EAD0084696
:10277000E8E7000070B50C462DED068B054600F02D
:1027800065F8B5F84006B0EE409A00EE100A284908
:10279000B8EE408A9FED270A18EE100A884201DD44
:1027A00038EE408AB5F8000600EE900AF8EE608A2E
:1027B00018EE900A884201DD78EEC08A9FED1E1B5C
:1027C0009FED1F0B00F0D8FBB0EE40AA94ED040A79
:1027D000F0EE60AA48EE008A88EE280A10EE100A91
:1027E000FDF7DDFE53EC1A2BFDF7DAFDFDF7EAFEEF
:1027F000DFED150A94ED011A00EE100A79EE601A69
:10280000F7EE000AA08941EE210A80EE201A00EEC0
:10281000100AD4ED020AB8EE400ABDEC068B31EE88
:10282000400A80EE201AB3EE090A31EE000A70BDAC
:1028300000FEFF460000804700000000000032401C
:1028400000000000000000403333534010B50C4638
:102850002DED068BB0F85416284A00EE101AB8EE8B
:10286000408A18EE101A914203DD9FED250A38EEDA
:10287000408AB0F88006C0F38120FDF772FE9FED1C
:1028800021AB41EC110BB0EE4A0AF0EE6A0A00F0FF
:1028900073FBB0EE409AF0EE609A94F82400FDF7D6
:1028A00071FE41EC110BB0EE4A0AF0EE6A0A00F03C
:1028B00063FBB0EE401AF0EE601A53EC192B51ECAA
:1028C000110BFDF7DFFDFDF77DFE00EE100AB4F9F8
:1028D000020000EE900AB4F90000F8EEE00A50EEB3
:1028E000080A00EE100ABDEC068BB8EEC01A80EEA6
:1028F000810ADFED060A30EE200A10BD00FEFF4619
:1029000000008047000000000000004033335340C7
:102910002DE9F043ADF2846D8946804600251C46C2
:1029200016462F464FF4D0616846FDF787FC4FEA04
:1029300048604FEA10684FEA192060F3070769F30F
:102940000F27FFF755FEDFF87C90D9F8040000F060
:10295000E5FAFFF727FED9F8040000F0DFFA4FFA96
:1029600088F0FFF7C7FD4FF0FF3940B978B2FFF7A5
:10297000C1FD20B947F30720FFF7BCFD20B1484651
:102980000DF2846DBDE8F083FFF76CFD48F00100A7
:1029900040B2FFF7AFFD0028F1D170006946FFF7A4
:1029A000E3FCFFF725FE684608E069004218415C39
:1029B00052786D1C02EB012124F8021BB542F4DBB6
:1029C0000020DDE7140000202DE9F84381460020B7
:1029D0000090080A8DF800008DF80110100A8DF89B
:1029E000020015460E464FEA49048DF80320FFF712
:1029F000FFFD154F786800F091FAFFF7D3FD60B244
:102A0000FFF778FD10B10120BDE8F8830024E84607
:102A100018F90400FFF76EFD10B14FF0FF30F3E737
:102A2000641C042CF4DBFFF7E3FD074B0122314665
:102A30004846FFF76DFF3888A84202D06FF00100CA
:102A4000E2E70020E0E700001400002038B548F27B
:102A50000D0405466B4601222146FFF759FF002869
:102A600007D1BDF80000214640F480522846FFF708
:102A7000ABFF38BDF8B505464807860D48F20D0492
:102A80006B46012221462846FFF742FF002808D165
:102A9000BDF80000214620F4607232432846FFF75B
:102AA00093FFF8BDF0B587B014216846FDF7C6FB6B
:102AB00035480024016841F004010160016801F01B
:102AC00004010591016841F080010160016801F095
:102AD00080010591016841F001010160016801F088
:102AE00001010591016841F002010160016801F0F6
:102AF00002010591016841F0080101600068234F5F
:102B000000F0080045F2C006059000223146384624
:102B1000FEF7ACFF4FF6F3700325CDE900056946DB
:102B200002941B48FEF7DEFE49F6FF70CDE9000572
:102B3000694602941748FEF7D5FE48F23F30CDE9CA
:102B40000005694602943846FEF7CCFE0120009647
:102B5000CDE90104694638460394FEF7C3FE4FF4FD
:102B6000005000900C48CDE9010469463846FEF754
:102B7000B9FE0420CDE90005694602940748FEF736
:102B8000B1FE07B0F0BD0000303802400004024042
:102B9000000802400000024000001110000C02403A
:102BA0000F4810B50D4901604FF48271416000215A
:102BB0008160C1604FF400720161C0E90512C1611A
:102BC0000162416281620A21C162FFF73FFA002877
:102BD00003D0BDE81040FEF719B910BD0038004021
:102BE000E0120020FEE77047704738B50B460092B0
:102BF00004460022802100F008F8002804D0606D0F
:102C000040F020006065032038BD2DE9F0411D46ED
:102C100017460E460446DDF8188008E0681C06D00A
:102C2000FEF72AFFA0EB0800A8420BD255B120689E
:102C3000806836EA000030D00020B842EED1002093
:102C4000BDE8F0812068416821F0E00141606068E2
:102C5000B0F5827F0BD1A068B0F5004F02D0B0F57F
:102C6000806F04D12068016821F040010160A06AF2
:102C7000B0F5005F09D12068016821F400510160BE
:102C80002068016841F400510160012084F851007E
:102C9000002084F850000320D2E70120CDE77047E0
:102CA000FEF7F0BE30B593B030216846FDF7C6FAA6
:102CB00014210CA8FDF7C2FA19480025016841F05B
:102CC00080510160006800F0805011901548016843
:102CD00021F4404141F4004101600068022400F405
:102CE0004040119001200090000401908001CDE946
:102CF000064019200890A820CDE9090404200B9073
:102D00006846FFF715F80CA90F2081E83100E002B2
:102D1000CDE90F0502210CA8FEF740FF13B030BD2E
:102D200040380240007000401048016841F47001D2
:102D300001600F48016841F0010101600C4A002167
:102D40000832116002680B4B1A400260031D0A4AE8
:102D50001A60026822F48022026005480C3001608B
:102D600002495806803908607047000088ED00E08D
:102D700000380240FFFFF6FE10300024FEE700009E
:102D8000F8B5144C0546A068804720698047216A41
:102D9000C5F30740C5F3072699B1626A8AB18DF879
:102DA00000008DF801608DF80250032168469047BD
:102DB000A0698047054660698047E06880472846EB
:102DC000F8BDE1698847E16930468847E169E8B2C2
:102DD0008847EDE7340000202DE9F8431A4C0546FA
:102DE0001746A0688846804720698047216AC5F356
:102DF0000740C5F30726A1B1626A92B18DF80000C1
:102E00008DF801608DF80250032168469047226AD0
:102E100039464046904760698047E0688047BDE892
:102E2000F883E1698847E16930468847E169E8B29B
:102E30008847002505E0A069804708F805006D1C5B
:102E4000ADB2BD42F7D3E6E734000020F8B5164C2A
:102E500005460E46A068804720698047626A45F0B3
:102E600004058AB1280C8DF80000280A8DF80100AD
:102E70008DF802508DF80360042168469047606920
:102E80008047E0688047F8BDE169C5F3074088479F
:102E9000E169C5F307208847E169E8B28847E1693D
:102EA00030468847EBE7000034000020F8B51A4CA4
:102EB00005461646A0680F46804720698047626A2B
:102EC00045F004059AB1280C8DF80000280A8DF809
:102ED00001008DF80250032168469047626A31462E
:102EE0003846904760698047E0688047F8BDE169EF
:102EF000C5F307408847E169C5F307208847E169C2
:102F0000E8B28847002504E0E169785D88476D1CD8
:102F1000ADB2B542F8D3E5E734000020002100E06F
:102F2000491C8142FCDB704703B4019841000098C2
:102F300050EAC12018BF04204A0D18BF40F001001C
:102F400040F2FF72B2EB515F08BF40F0020001286F
:102F500008BF052002B070470907090E002804DBEE
:102F600000F1E02080F80014704700F00F0000F13D
:102F7000E02080F8141D70472DE9F04D2DED040B75
:102F80002DED0E8B96B0DDE92550279CDDF890A045
:102F900025F0004624F00048BAF1000F14BF0121CB
:102FA000002101EB4502FC4953184A1093422AD3F1
:102FB000002814BF0123002303EB44030B44F7490B
:102FC0008B4220D358EA00019FEDF59B76D0DFF8C5
:102FD000D8B35D4503D1BAF1000F05D188E0BAF14D
:102FE000000F08BF002100D0012101EB450111F5C0
:102FF000001F08D8002814BF0121002101EB440163
:1030000011F5001F0BD99DED261B9DED240B16B06D
:10301000BDEC0E8B04B0BDE8F04D00F0A9BE00275A
:10302000002DBCBFE149884521DAE1498845A8BFA8
:1030300002271CDAC3451ADCDE4901EB28511429AA
:1030400008DDC1F1340220FA02F101FA02F28242F3
:103050000DD108E058B9C1F1140228FA02F101FAC1
:1030600002F2424503D101F00101C1F1020756EA23
:103070000A0124D1002C22DA002D18BF022F01D022
:10308000012F0AD0022000F0BFFE16B0BDEC0E8B5F
:1030900004B0BDE8F04D00F053BE022000F0B4FED5
:1030A00000F04EFE51EC100B81F0004141EC100B92
:1030B00016B0BDEC0E8B04B0BDE8F08D18E09FEDAE
:1030C000BEAB9FEDBF8B002871D1B848804522D19F
:1030D00005F1804010F5801008BFBAF1000F07D04D
:1030E000B3450ADC002CA8BF9DED260BE0DA0DE00D
:1030F000B0EE490AF0EE690ADAE7002C06DA9DED37
:10310000260B51EC100B81F000416FE0AE48784483
:1031100090ED000BCCE7D8454DD1002C48DA2EB10C
:1031200086423AD1BAF1000F42D126E0BAF1000F3F
:1031300013D0022000F068FE00F036FE8DED020B89
:103140009DED240B8DED000B10EE900A039961F3B9
:103150001E0003909DED020BAAE78DED02AB9DEDE5
:10316000240B1AEE901A10EE900A8DED000B61F30D
:103170001E0003909DED020B9AE78DED028B9DEDF5
:10318000240B18EE901A10EE900A8DED000B61F3EF
:103190001E0003909DED020B8AE709DA9DED240BDA
:1031A00051EC190B53EC102BFDF76CF91EE020E0ED
:1031B0009DED240B7CE786421BDAB4F1804F0DD0E5
:1031C000A4F10050B0F1FF5013D1002D11DB9DEDA3
:1031D000240B51EC100B01F0DDF807E09DED240B02
:1031E00053EC102B51EC100B00F0C2BC41EC100B57
:1031F0005EE79DED240B51EC100B00F05DFEBAF183
:10320000000FCDE90E0142D19FED710B46B3A6F13F
:10321000E040B0F17F600CD05E4538D1002D00DA7F
:10322000A7B3022F0CBF01204FF0FF30FDF799F933
:10323000DCE7002D01DD002C0DDA002D01DD002C76
:103240001FDB002D16DA002C14DB012F08BF9FEDC9
:10325000620B3FF42DAFB0EE4A0AF0EE6A0A27E7A0
:10326000022F18BF002D0CD0012F0AD1002DFFF620
:103270001FAF06E0002DB8BF002C08DA012F3FF485
:1032800017AFB0EE480AF0EE680A11E71BE0012024
:1032900000EBE57050EA070115D0791EB0EE498ABF
:1032A000F0EE698A084308BF9FED4D8B4E4800251C
:1032B000804570DD4D494E48884514DDB0420DDB38
:1032C000002C19DB2FE0012000F09EFD16B0BDECB4
:1032D0000E8B04B0BDE8F04D00F056BDB34502DCE6
:1032E000002C09DC1FE0864202DA002C1BDA03E026
:1032F0005E452BDD002C16DD022000F085FD00F080
:1033000053FD8DED020B53EC1A2B51EC180BFDF70E
:1033100047F8CDE900010399019861F31E0003907D
:103320009DED020BC4E6022000F06EFD00F04CFDA6
:1033300010EE901A18EE900A8DED020B8DED008BB9
:1033400061F31E0003909DED020BB1E69DED0E0BA7
:1033500053EC192B51EC100BFDF71CF89FED260BCD
:10336000CDE9080153EC102B9DED080B51EC100B2F
:10337000FDF716F89FED221B53EC112BFDF70DF80E
:103380009DED081B53EC112BFDF70AF89FED1E1B5A
:1033900053EC112B3CE08CE0FFFF1F00FFFF0F0000
:1033A000000000000000F03F0000F03F0000F07F50
:1033B0000000404301FCFFFF000000000000F07F20
:1033C0000000000000000000761500000000000072
:1033D0000000000000000080000000000000F0FF7E
:1033E000000000000000F0BF0000E0410000F043DA
:1033F000FFFFEF3F00000000000000000000D03F92
:10340000555555555555D53F000000000000E03F8B
:10341000FCF7C3FF9DED080B41EC1A0B53EC102B8E
:1034200051EC100BFCF7BCFF53EC1A2BFCF7B8FF68
:1034300041EC1A0B9FEDFE0B53EC102B9DED080B8E
:1034400051EC100BFCF7ACFF41EC1B0B9FEDFA0BA2
:1034500051EC1A0B53EC102BFCF7A2FF41EC1A0BAA
:103460009FEDF70B53EC102B9DED080B51EC100B5F
:10347000FCF796FF53EC1A2BFCF78CFF41EC1A0B70
:1034800051EC1B0B53EC1A2BFCF7E3FE0690CDE935
:1034900006519DED060B53EC1B2B51EC100BFCF76A
:1034A00079FF53EC1A2BFCF778FF41EC100B00F07E
:1034B000A1B90020B6F5801F0EDA9FEDE30B53ECA7
:1034C000102B9DED0E0B51EC100BFCF769FFCDE9B5
:1034D0000E016FF034000E4600EB2650A0F2FF37CD
:1034E000C6F31300DA4940F07F6646F04056884242
:1034F000D8BF002408DDD7498142C8BF012403DCBE
:103500000024A6F580167F1CD348784400EBC40045
:103510000F9690ED00CB9DED0E0B53EC1C2B51EC58
:10352000100BFCF737FF9DED0E0B41EC1B0B53EC22
:103530001C2B51EC100BFCF78CFE41EC100B51ECEA
:10354000190B53EC102BFCF79DFF41EC1D0B51ECBC
:103550001B0B53EC1D2BFCF723FF41EC1A0BBF4850
:103560008DED10AB7844109590ED000B4FF00050AE
:1035700040EA660000EB84408DED080B00F500206A
:1035800009909DED080B53EC1C2B51EC100BFCF734
:1035900001FF9DED0E1B53EC112BFCF7FEFE41ECE1
:1035A000100B53EC102B9DED100B51EC100BFCF796
:1035B000F7FE9DED080B41EC1C0B53EC102B9DED21
:1035C000100B51EC100BFCF7EBFE53EC1B2BFCF734
:1035D000E4FE53EC1C2BFCF7DDFE53EC1D2BFCF73B
:1035E000DFFE41EC1C0B53EC1A2B51EC1A0BFCF7D1
:1035F000D7FE41EC1B0B9A480621B0EE4B0AF0EEC9
:103600006B0A784400F01DFBB0EE401AF0EE601A31
:10361000B0EE41DAF0EE61DA53EC1B2B51EC1B0BF0
:10362000FCF7BEFE53EC1D2BFCF7BAFE9DED100B14
:1036300041EC1B0B53EC1A2B51EC100BFCF709FE61
:1036400053EC1C2BFCF7ACFE53EC1B2BFCF701FEE0
:103650009DED100B41EC1B0B53EC102B51EC100BA0
:10366000FCF79EFE41EC1D0B9FED7FEB53EC1E2BF8
:10367000FCF7EFFD53EC1B2BFCF7EBFD0890CDE9BD
:1036800008519DED080B53EC1E2B51EC100BFCF771
:1036900081FE53EC1D2BFCF77DFE53EC1B2BFCF73E
:1036A0007CFE9DED080B41EC1D0B53EC102B9DEDAA
:1036B000100B51EC100BFCF773FE41EC1B0B53ECA1
:1036C0001A2B51EC1D0BFCF76BFE9DED080B41EC2A
:1036D0001A0B53EC102B51EC1C0BFCF761FE53EC56
:1036E0001A2BFCF7B6FD41EC1A0B51EC1B0B53ECFB
:1036F0001A2BFCF7AEFD0C90CDE90C519DED0C0B97
:1037000053EC1B2B51EC100BFCF744FE53EC1A2B23
:10371000FCF743FE41EC1B0B9FED550B53EC102BBC
:103720009DED0C0B51EC100BFCF73AFE41EC1A0B23
:103730009FED510B51EC1B0B53EC102BFCF730FEA3
:1037400041EC1B0B9FED4E0B53EC102B9DED0C0B26
:1037500051EC100BFCF724FE53EC1B2BFCF779FD0E
:1037600041EC100B4848784400EBC40090ED001B7E
:1037700051EC100B53EC112BFCF76BFD41EC1B0BC8
:103780003846FCF7EEFECDE9080153EC1B2B51EC5B
:103790001A0BFCF75EFD41EC100B3C48784400EB43
:1037A000C40090ED00CB51EC100B53EC1C2BFCF73C
:1037B00050FD9DED081B53EC112BFCF74AFD0690C4
:1037C000CDE906519DED080B53EC102B9DED060B3A
:1037D00051EC100BFCF7DEFD53EC1C2BFCF7DAFD73
:1037E00053EC1A2BFCF7D6FD53EC1B2BFCF7D5FD45
:1037F00041EC100B9DED261B53EC102B8DED001BA7
:1038000000959DED260B51EC100BFCF7C9FD9DEDCD
:10381000000B41EC1A0B53EC102B9DED260B51ECD9
:10382000100BFCF7B7FD9DED061B53EC112B2FE0A1
:10383000000000604715F73FFE822B654715F73FF4
:1038400044DF5DF80BAE543E000000000000404332
:103850008E9803007AB60B00F210000020110000D1
:103860002A100000000000000000000000000840D6
:10387000000000E009C7EE3FFD033ADC09C7EE3F58
:10388000F5015B14E02F3EBEB60E0000700E000086
:10389000FCF786FD53EC1A2BFCF7DBFC9DED060BC9
:1038A00041EC1A0B53EC102B9DED000B51EC100B5F
:1038B000FCF776FDCDE90C019DED0C0B51EC1A0BDC
:1038C00053EC102BFCF7C5FCCDE902010C46AA49CC
:1038D0008C422FDB611A084318D19DED0C0B53EC81
:1038E000102B9DED020B51EC100BFCF753FD41EC3E
:1038F0001B0B9FEDA30B51EC1A0B53EC102BFCF799
:10390000A8FC53EC1B2BFCF7A7FF2DD2022000F0E4
:103910007BFA00F049FA10EE901A18EE900A8DED3D
:10392000020B8DED008B61F31E0003909DED020BE9
:10393000FFF7BEBB944A24F00041914214D393494F
:10394000214408437FF4EFAC9DED0C0B53EC102B9E
:103950009DED020B51EC100BFCF71CFD53EC1A2BE8
:10396000FCF77AFF7FF6DFAC24F000408849894AF3
:10397000002601EB205182422BDA481C4FF48011C3
:1039800021FA00F02044844AC0F30A517A44A1F29B
:10399000FF3192ED000B814A8DED080BCA4020EA01
:1039A0000202C0F3130040F48010C1F1140120FAA8
:1039B00001F60992002CB8BF76429DED080B53EC3E
:1039C000102B9DED0C0B51EC100BFCF7E3FCCDE93B
:1039D0000C019DED0C0B51EC1A0B53EC102BFCF76A
:1039E00038FC9FED6F0B0890CDE9085153EC102B7C
:1039F0009DED080B51EC100BFCF7D2FC41EC1B0BBE
:103A00009FED690B53EC102B9DED080B51EC100B47
:103A1000FCF7C6FC9DED0C0B41EC1C0B53EC102B82
:103A20009DED080B51EC100BFCF7B4FC53EC1A2B7A
:103A3000FCF7B3FC9FED5E1B53EC112BFCF7B0FCC5
:103A400053EC1C2BFCF705FC41EC1A0B51EC1B0B47
:103A500053EC1A2BFCF7FDFBCDE902019DED020BA7
:103A600053EC1B2B51EC100BFCF794FC53EC1A2B72
:103A7000FCF793FC9DED020B41EC1A0B53EC102B61
:103A800051EC100BFCF78CFCCDE908014A489DED88
:103A9000080B0521784400F0D4F89DED081B51EC8B
:103AA000100B53EC112BFCF77BFC9DED021B53EC30
:103AB000112BFCF772FCCDE906019DED020B53ECD6
:103AC0001A2B51EC100BFCF76BFC53EC1A2BFCF788
:103AD000C0FB9FED3B0B41EC1A0B53EC102B9DED03
:103AE000060B51EC100BFCF755FC9DED060B41EC61
:103AF0001B0B53EC102B9DED020B51EC100BFCF744
:103B00004FFC53EC1B2BFCF7BDFC53EC1A2BFCF7C2
:103B100041FC9DED021B53EC112BFCF73BFC53ECDD
:103B2000192BFCF73AFCCDE9020101EB0650011517
:103B30000029C8BF039015DC9DED020B324651EC05
:103B4000100BFCF720FEFFF7EFF9042808BF00F088
:103B50003BF932469DED020B51EC100BFCF713FEC6
:103B6000CDE902019DED020B51EC180B53EC102B2B
:103B7000FCF716FCFFF73ABB000090400000000085
:103B8000FE822B654715973C00CC904000346F3F78
:103B900001FCFFFF0000E03FF80C0000FFFF0F00FA
:103BA00000000000432EE63F396CA80C615C20BE8B
:103BB000EF39FAFE422EE63FC80B0000000000007D
:103BC000000000000000004000B52DED048BB0EEB9
:103BD000409AF0EE609A83B051EC190BFCF7EAFDC5
:103BE00041EC180B18EE100A18EE901A8DED008BB0
:103BF000002818BF0120084320F00040C0F17F607A
:103C000000F1E040C00F14D019EE101A19EE900A1E
:103C10008DED009B002918BF0121084320F00040D2
:103C2000C0F17F6000F1E040C00F04BF012000F050
:103C3000EBF8B0EE480A03B0F0EE680ABDEC048B76
:103C400000BD70B504462DED028B4D1E00EBC50086
:103C5000B0EE408AF0EE608A90ED000B35F0060081
:103C600017D053EC182B51EC100BFCF799FB41ECDF
:103C7000100B6D1E04EBC50090ED001B51EC100BFA
:103C800053EC112BFCF7E5FA41EC100B35F0060074
:103C9000E7D1022D36D0042D1CD0062D1CBFBDEC63
:103CA000028B70BD53EC182B51EC100BFCF778FB1A
:103CB00094ED0A1B53EC112BFCF7CBFA53EC182BA9
:103CC000FCF76EFB94ED081B53EC112BFCF7C1FACB
:103CD00041EC100B53EC182B51EC100BFCF760FB74
:103CE00094ED061B53EC112BFCF7B3FA53EC182B95
:103CF000FCF756FB94ED040B53EC102BFCF7A9FAE0
:103D000041EC100B53EC182B51EC100BFCF748FB5B
:103D100094ED021B53EC112BFCF79BFA53EC182B80
:103D2000FCF73EFB94ED001B53EC112BFCF791FAD2
:103D3000BDEC028B41EC100B70BD000000000000D8
:103D40009FED070B10B553EC102B9FED070B51ECBB
:103D5000100BFCF797FB41EC100B10BD00000000AE
:103D60000000000000000000000000000000F03F24
:103D700010B553EC112B51EC100BFCF76AFA41EC27
:103D8000100B10BD000000009FED050B10B553ECAB
:103D9000102B51EC100BFCF775FB41EC100B10BD18
:103DA00000000000000000009FED050B10B553EC73
:103DB000102B51EC100BFCF7F3FA41EC100B10BD7B
:103DC00000000000000000709FED050B10B553ECE3
:103DD000102B51EC100BFCF7E3FA41EC100B10BD6B
:103DE000000000000000001002E008C8121F08C117
:103DF000002AFAD170477047002001E001C1121F6C
:103E0000002AFBD17047000001490860704700009C
:103E10005C00002070B50446082802D94FF0FF303E
:103E200070BD4FF4847000EB441005461021FFF77D
:103E30000DF82846FEF7A4FF0028FAD14FF40270CF
:103E400000EB44101F21FFF701F80D490120A040AD
:103E50004A8882434A808A8882438A8009490020AE
:103E600021F814000649891D08554FF4427000EBF3
:103E700044142046FEF784FF0028FAD1012070BDCB
:103E80001C000020E41900200A49498841434FF0F2
:103E9000E020491E416101218161016941F0010178
:103EA00001610169C903FCD5016921F001010161CA
:103EB000704700001000002082B0CDE9000121F021
:103EC000004001909DED000B02B051EC100B7047CB
:103ED0002DE9F04142F2080101EB401542F20811D0
:103EE000002601EB40142846FEF74AFF074620460D
:103EF000FEF746FF00EB072007043F0C09D02846D9
:103F0000FEF73EFF06462046FEF73AFF00EB06208E
:103F100086B2BE42E7D13046BDE8F0812DED048B7C
:103F2000ADF55C5D00279FED389AFDF7B3FDFEF718
:103F3000B9FEFEF7B7FDFEF733FE5420FCF74CFF49
:103F400000F06CF803213320FEF794FD3320FEF7D8
:103F50007DFD2E493320FEF76DFB0DF5C166314620
:103F60002A48FEF76EFB43F27804DFED298A4FF40E
:103F7000FA786C4401AD21463320FEF7A6FB40469B
:103F8000FFF782FF7F1CBFB2032FF4D3214FF2EE65
:103F9000009A4FF4407821463320FEF796FB3146D5
:103FA0002046FEF7E7FBB0EE408A1A4A78EE690A2F
:103FB000B0EE490A31462046FCF778FC0020434623
:103FC0004FEA050107EB800292ED000A20EE280A75
:103FD000BCEEC00A10EE102A21F81020401C80B25E
:103FE0009842EFD328EE280A0B4B40F20262BCEE57
:103FF000C00A10EE100AADF80406A82000900020B8
:1040000000F07AF8C7E700003333733F6000002008
:104010000000C842E00600204F1300202DE9FF41B8
:1040200031A0334DD0E90010CDE900102EA14FF49E
:104030008044D1E90001CDE9020100222146284651
:10404000FDF714FD6420FFF71FFF012221462846DB
:10405000FDF70CFD6420FFF717FF264CC026A827AC
:10406000267067700125A5704F20E070FF20207139
:104070006071A0710020E07126726772A572E5720E
:10408000207408216174DC21A174E0746F20207514
:10409000CA206075062204F110014FF41060FEF78B
:1040A00005FF042204F108019001FEF7FFFE04223F
:1040B000211D4FF4A060FEF7F9FE042221464FF4C3
:1040C0007060FEF7F3FE02A9684600F0DDF90023F8
:1040D000A7220221184600F0CFF8E675277665760C
:1040E0008B20A076BDE8FF811000000000000000DA
:1040F00000040240381300202DE9F0471E46DDF889
:10410000208015468A460446082803D94FF0FF3020
:10411000BDE8F087670108374FF001093846FEF720
:104120002FFE00F00F00022806D0032804D0042838
:1041300002D06FF00400EBE75DB13078717801EBED
:104140000020B17801EB0020F17811EB002003D0C2
:104150000AE06FF00D00DBE73846FEF711FE40077E
:1041600002D46FF00B00D3E7B8F1000F07D1384647
:10417000FEF706FE400702D46FF00A00C8E74FF4CE
:10418000427000EB44100746FEF7FAFD422806D0C5
:10419000222804D0322802D06FF00600B8E740F69B
:1041A000084000EB441004223146FEF77FFE41F246
:1041B00008004FEA182100EB4410FEF747FE41F2D9
:1041C000081008F0FF0100EB4410FEF73FFE41F637
:1041D000087000EB4410FEF7D3FD4FF6FF7101EAC3
:1041E0008020854200D90546DFF8888009FA04F668
:1041F0002046FFF76DFE81463846FEF7C1FD38B117
:10420000B8F80200064206D04D4504D900207FE7E9
:104210006FF003007CE74D45EAD82A465146204618
:1042200000F0EFF84FF4847000EB441006462021B4
:10423000FEF70CFE4FF4027000EB44143046FEF71C
:104240009FFD0028FAD12046FEF79AFD00F01F00DE
:10425000C10605D520461021FEF7F8FD284657E790
:104260000007F0D520460821FEF7F0FD6FF00C00A6
:104270004EE700001C0000202DE9F8431D461746BC
:104280000E460446082803D94FF0FF30BDE8F883F6
:10429000012E08D0022E0ED0032E0CD0042E0AD0F0
:1042A0006FF00400F2E7042269464FF47060FEF7F5
:1042B00093FD009848B169076FF00500E6D49DB101
:1042C000012E05D0022E0FD106E06FF00200DDE7CF
:1042D00015F0210FDAD007E0A90601D52906D5D5BA
:1042E000E90601D52906D1D52046FFF793FD6001E7
:1042F00005F0F0014FF0010831430830FEF7A6FD4C
:10430000224E57B93788781C80B2A0F57F413080A3
:10431000F03902D14FF4404030804FF48160390AC7
:1043200000EB4410FEF792FD4FF4A160F9B200EBF0
:104330004410FEF78BFD4FF4847000EB44100746E9
:104340000121FEF783FD3846FEF71AFD0028FAD159
:1043500008FA04F0718805F001028143A2400A4383
:104360007280B1888143B1800949002021F814008E
:104370000649891D08554FF4427000EB4415284644
:10438000FEF7FEFC0028FAD060B27FE71C00002098
:10439000E419002000B52DED048B83B041EC190B1E
:1043A000FCF708FA41EC180B18EE100A18EE901AF8
:1043B0008DED008B002818BF0120084320F000403D
:1043C000C0F17F6000F1E040C00F14D019EE101A68
:1043D00019EE900A8DED009B002918BF01210843BA
:1043E00020F00040C0F17F6000F1E040C00F04BF4A
:1043F0000120FFF709FD51EC180B03B0BDEC048B55
:1044000000BD2DE9F0475FEA02088946064626D03E
:1044100042F2085000EB46152846FEF7B1FC07466D
:1044200042F2084000EB46142046FEF7A9FC07EBD9
:10443000002087B2380200EB461042464946103051
:10444000FEF734FD07EB080086B2310A2046FEF77E
:10445000FDFCF1B22846BDE8F047FEF7F7BCBDE829
:10446000F087704770470000012211030148FDF7F3
:10447000FDBA00000004024000224FF480510148C0
:10448000FDF7F4BA000402402DE9F0410D4606465E
:10449000002400F073F84FF0FF38AEB10022B05C9A
:1044A000204444B2102C17DC521C52B2082AF6DB0E
:1044B000002441F60877315D07EB4410FEF7C6FC97
:1044C000641C64B2082CF6DBCDB1002108462A5CDE
:1044D000114449B2102902DD4046BDE8F081401C7C
:1044E00040B20828F3DB002441F60866295D06EB9C
:1044F0004410FEF7ABFC641C64B2082CF6DB002011
:10450000EBE7000008B50B4602460091024903485C
:10451000FDF724FE08BD0000F4190020E012002081
:104520001CB500208DF804000120034601AA00906C
:1045300011460348FDF712FE9DF804001CBD000063
:10454000E012002008B50B4600910146024A0348DC
:10455000FDF704FE08BD0000F4190020E012002061
:1045600001B582B00120034602AA0090114602481C
:10457000FDF7F4FD0EBD0000E0120020F0B585B09F
:104580004FF41064062269462046FEF725FC0422FB
:10459000950102A92846FEF71FFC4FF4A0660422ED
:1045A00003A93046FEF718FC4FF47067042204A9F3
:1045B0003846FEF711FC80210020FEF747FC002062
:1045C000FEF7DEFB062269462046FEF76FFC04225A
:1045D00002A92846FEF76AFC042203A93046FEF72A
:1045E00065FC042204A93846FEF760FC05B0F0BD66
:1045F0000000000000000000010203040607080993
:10460000000000000000F03F000000000000F83F44
:1046100000000000000000000000004003B8E23F7E
:10462000000000000000000006D0CF43EBFD4C3E30
:10463000033333333333E33FFFAB6FDBB66DDB3F25
:104640004D268F515555D53F01411DA96074D13F6D
:1046500065DBC9934A86CD3FEF4E454A287ECA3F67
:104660003E5555555555C53F93BDBE166CC166BFE9
:104670002CDE25AF6A56113FF16BD2C541BDBBBEE2
:10468000D0A4BE726937663E000000000000000042
:10469000B04600080000002060000000E83D00086F
:1046A000104700086000002098790000F83D0008DD
:1046B0000100000010000000000000000024F400D1
:1046C00000000000000000000400000000C0000026
:1046D00000000000000000000000000000000000DA
:1046E00000000000010257353530300063440008F7
:1046F0006544000879440008694400082145000821
:104700006145000805450008454500080000000017
:040000050800019559
:00000001FF
